{
  "abi": [
    {
      "inputs": [
        {
          "internalType": "string",
          "name": "_sellerId",
          "type": "string"
        },
        {
          "internalType": "string",
          "name": "_marketplaceId",
          "type": "string"
        },
        {
          "internalType": "address",
          "name": "_sellerAddress",
          "type": "address"
        },
        {
          "internalType": "address",
          "name": "_beneficiaryAddress",
          "type": "address"
        },
        {
          "internalType": "uint256",
          "name": "_platformCommissionRate",
          "type": "uint256"
        },
        {
          "internalType": "address[]",
          "name": "_paymentContracts",
          "type": "address[]"
        }
      ],
      "stateMutability": "nonpayable",
      "type": "constructor"
    },
    {
      "anonymous": false,
      "inputs": [
        {
          "indexed": true,
          "internalType": "address",
          "name": "buyerAddress",
          "type": "address"
        },
        {
          "indexed": true,
          "internalType": "string",
          "name": "orderId",
          "type": "string"
        },
        {
          "indexed": true,
          "internalType": "address",
          "name": "paymentContract",
          "type": "address"
        }
      ],
      "name": "OrderPaid",
      "type": "event"
    },
    {
      "anonymous": false,
      "inputs": [
        {
          "indexed": true,
          "internalType": "address",
          "name": "previousOwner",
          "type": "address"
        },
        {
          "indexed": true,
          "internalType": "address",
          "name": "newOwner",
          "type": "address"
        }
      ],
      "name": "OwnershipTransferred",
      "type": "event"
    },
    {
      "anonymous": false,
      "inputs": [
        {
          "indexed": false,
          "internalType": "address",
          "name": "paymentContract",
          "type": "address"
        }
      ],
      "name": "PaymentContractAdded",
      "type": "event"
    },
    {
      "anonymous": false,
      "inputs": [
        {
          "indexed": false,
          "internalType": "address",
          "name": "paymentContract",
          "type": "address"
        }
      ],
      "name": "PaymentContractDeleted",
      "type": "event"
    },
    {
      "inputs": [
        {
          "internalType": "address",
          "name": "paymentContract",
          "type": "address"
        }
      ],
      "name": "addPaymentContract",
      "outputs": [],
      "stateMutability": "nonpayable",
      "type": "function"
    },
    {
      "inputs": [
        {
          "internalType": "address",
          "name": "",
          "type": "address"
        }
      ],
      "name": "allowedPaymentContracts",
      "outputs": [
        {
          "internalType": "bool",
          "name": "",
          "type": "bool"
        }
      ],
      "stateMutability": "view",
      "type": "function"
    },
    {
      "inputs": [],
      "name": "beneficiaryAddress",
      "outputs": [
        {
          "internalType": "address",
          "name": "",
          "type": "address"
        }
      ],
      "stateMutability": "view",
      "type": "function"
    },
    {
      "inputs": [
        {
          "internalType": "address",
          "name": "paymentContract",
          "type": "address"
        }
      ],
      "name": "deletePaymentContract",
      "outputs": [],
      "stateMutability": "nonpayable",
      "type": "function"
    },
    {
      "inputs": [
        {
          "internalType": "string",
          "name": "orderId",
          "type": "string"
        }
      ],
      "name": "getOrder",
      "outputs": [
        {
          "internalType": "bool",
          "name": "exists",
          "type": "bool"
        },
        {
          "internalType": "address",
          "name": "buyerAddress",
          "type": "address"
        },
        {
          "internalType": "uint256",
          "name": "price",
          "type": "uint256"
        },
        {
          "internalType": "address",
          "name": "paymentContract",
          "type": "address"
        }
      ],
      "stateMutability": "view",
      "type": "function"
    },
    {
      "inputs": [],
      "name": "marketplaceId",
      "outputs": [
        {
          "internalType": "string",
          "name": "",
          "type": "string"
        }
      ],
      "stateMutability": "view",
      "type": "function"
    },
    {
      "inputs": [],
      "name": "owner",
      "outputs": [
        {
          "internalType": "address",
          "name": "",
          "type": "address"
        }
      ],
      "stateMutability": "view",
      "type": "function"
    },
    {
      "inputs": [
        {
          "internalType": "string",
          "name": "orderId",
          "type": "string"
        },
        {
          "internalType": "uint256",
          "name": "price",
          "type": "uint256"
        }
      ],
      "name": "payUsingCoin",
      "outputs": [],
      "stateMutability": "payable",
      "type": "function"
    },
    {
      "inputs": [
        {
          "internalType": "string",
          "name": "orderId",
          "type": "string"
        },
        {
          "internalType": "uint256",
          "name": "price",
          "type": "uint256"
        },
        {
          "internalType": "address",
          "name": "paymentContract",
          "type": "address"
        }
      ],
      "name": "payUsingToken",
      "outputs": [],
      "stateMutability": "nonpayable",
      "type": "function"
    },
    {
      "inputs": [],
      "name": "platformCommissionRate",
      "outputs": [
        {
          "internalType": "uint256",
          "name": "",
          "type": "uint256"
        }
      ],
      "stateMutability": "view",
      "type": "function"
    },
    {
      "inputs": [],
      "name": "renounceOwnership",
      "outputs": [],
      "stateMutability": "nonpayable",
      "type": "function"
    },
    {
      "inputs": [],
      "name": "sellerAddress",
      "outputs": [
        {
          "internalType": "address",
          "name": "",
          "type": "address"
        }
      ],
      "stateMutability": "view",
      "type": "function"
    },
    {
      "inputs": [],
      "name": "sellerId",
      "outputs": [
        {
          "internalType": "string",
          "name": "",
          "type": "string"
        }
      ],
      "stateMutability": "view",
      "type": "function"
    },
    {
      "inputs": [
        {
          "internalType": "address",
          "name": "newOwner",
          "type": "address"
        }
      ],
      "name": "transferOwnership",
      "outputs": [],
      "stateMutability": "nonpayable",
      "type": "function"
    },
    {
      "inputs": [],
      "name": "withdrawCoins",
      "outputs": [],
      "stateMutability": "nonpayable",
      "type": "function"
    },
    {
      "inputs": [
        {
          "internalType": "uint256",
          "name": "amount",
          "type": "uint256"
        }
      ],
      "name": "withdrawCoinsAmount",
      "outputs": [],
      "stateMutability": "nonpayable",
      "type": "function"
    },
    {
      "inputs": [
        {
          "internalType": "address",
          "name": "tokenContract",
          "type": "address"
        }
      ],
      "name": "withdrawTokens",
      "outputs": [],
      "stateMutability": "nonpayable",
      "type": "function"
    },
    {
      "inputs": [
        {
          "internalType": "address",
          "name": "tokenContract",
          "type": "address"
        },
        {
          "internalType": "uint256",
          "name": "amount",
          "type": "uint256"
        }
      ],
      "name": "withdrawTokensAmount",
      "outputs": [],
      "stateMutability": "nonpayable",
      "type": "function"
    }
  ],
  "bytecode": {
    "object": "0x60806040523480156200001157600080fd5b5060405162001ae438038062001ae4833981016040819052620000349162000251565b6200003f336200010e565b60036200004d878262000414565b5060046200005c868262000414565b50600580546001600160a01b038087166001600160a01b0319928316179092556006805492861692909116919091179055600782905560005b81518110156200010157600160026000848481518110620000ba57620000ba620004e0565b6020908102919091018101516001600160a01b03168252810191909152604001600020805460ff191691151591909117905580620000f881620004f6565b91505062000095565b505050505050506200051e565b600080546001600160a01b038381166001600160a01b0319831681178455604051919092169283917f8be0079c531659141344cd1fd0a4f28419497f9722a3daafe3b4186f6b6457e09190a35050565b634e487b7160e01b600052604160045260246000fd5b604051601f8201601f191681016001600160401b03811182821017156200019f576200019f6200015e565b604052919050565b600082601f830112620001b957600080fd5b81516001600160401b03811115620001d557620001d56200015e565b6020620001eb601f8301601f1916820162000174565b82815285828487010111156200020057600080fd5b60005b838110156200022057858101830151828201840152820162000203565b506000928101909101919091529392505050565b80516001600160a01b03811681146200024c57600080fd5b919050565b60008060008060008060c087890312156200026b57600080fd5b86516001600160401b03808211156200028357600080fd5b620002918a838b01620001a7565b9750602091508189015181811115620002a957600080fd5b620002b78b828c01620001a7565b975050620002c860408a0162000234565b9550620002d860608a0162000234565b94506080890151935060a089015181811115620002f457600080fd5b8901601f81018b136200030657600080fd5b8051828111156200031b576200031b6200015e565b8060051b92506200032e84840162000174565b818152928201840192848101908d8511156200034957600080fd5b928501925b848410156200037257620003628462000234565b825292850192908501906200034e565b8096505050505050509295509295509295565b600181811c908216806200039a57607f821691505b602082108103620003bb57634e487b7160e01b600052602260045260246000fd5b50919050565b601f8211156200040f57600081815260208120601f850160051c81016020861015620003ea5750805b601f850160051c820191505b818110156200040b57828155600101620003f6565b5050505b505050565b81516001600160401b038111156200043057620004306200015e565b620004488162000441845462000385565b84620003c1565b602080601f831160018114620004805760008415620004675750858301515b600019600386901b1c1916600185901b1785556200040b565b600085815260208120601f198616915b82811015620004b15788860151825594840194600190910190840162000490565b5085821015620004d05787850151600019600388901b60f8161c191681555b5050505050600190811b01905550565b634e487b7160e01b600052603260045260246000fd5b6000600182016200051757634e487b7160e01b600052601160045260246000fd5b5060010190565b6115b6806200052e6000396000f3fe6080604052600436106101095760003560e01c8063712ca0f81161009557806391ea85db1161006457806391ea85db146102fb578063b62ff9881461031b578063d9c4870e1461033b578063f2fde38b1461035b578063ffbb62a31461037b57600080fd5b8063712ca0f814610266578063715018a6146102b35780638282c7f7146102c85780638da5cb5b146102dd57600080fd5b8063261d7555116100dc578063261d7555146101b95780632b12f180146101db5780633d9b2ae6146101ee57806349df728c14610226578063568b68501461024657600080fd5b8063131cdf241461010e5780631cc2b38e146101535780631da4dd0d1461017557806322dfc9f514610199575b600080fd5b34801561011a57600080fd5b5061013e6101293660046111d8565b60026020526000908152604090205460ff1681565b60405190151581526020015b60405180910390f35b34801561015f57600080fd5b5061017361016e3660046111d8565b610390565b005b34801561018157600080fd5b5061018b60075481565b60405190815260200161014a565b3480156101a557600080fd5b506101736101b43660046111fa565b610459565b3480156101c557600080fd5b506101ce610645565b60405161014a9190611248565b6101736101e936600461131e565b6106d3565b3480156101fa57600080fd5b5060055461020e906001600160a01b031681565b6040516001600160a01b03909116815260200161014a565b34801561023257600080fd5b506101736102413660046111d8565b61080e565b34801561025257600080fd5b506101736102613660046111d8565b610976565b34801561027257600080fd5b50610286610281366004611363565b610a30565b6040805194151585526001600160a01b03938416602086015284019190915216606082015260800161014a565b3480156102bf57600080fd5b50610173610abc565b3480156102d457600080fd5b506101ce610ad0565b3480156102e957600080fd5b506000546001600160a01b031661020e565b34801561030757600080fd5b506101736103163660046113a0565b610add565b34801561032757600080fd5b506101736103363660046113b9565b610be1565b34801561034757600080fd5b5060065461020e906001600160a01b031681565b34801561036757600080fd5b506101736103763660046111d8565b610e3d565b34801561038757600080fd5b50610173610eb3565b610398610f39565b6001600160a01b0381163b6103dd5760405162461bcd60e51b81526020600482015260066024820152654e6f74454f4160d01b60448201526064015b60405180910390fd5b6001600160a01b03811660009081526002602052604090205460ff16610456576001600160a01b038116600081815260026020908152604091829020805460ff1916600117905590519182527f591086323dd2b97a4990e6efcee9bd96ba8d79a58296d8107bd5f7271073db8a91015b60405180910390a15b50565b6005546001600160a01b031633146104835760405162461bcd60e51b81526004016103d490611410565b6001600160a01b03821660009081526002602052604090205460ff166104bb5760405162461bcd60e51b81526004016103d490611434565b600081116104f85760405162461bcd60e51b815260206004820152600a60248201526916995c9bd05b5bdd5b9d60b21b60448201526064016103d4565b6040516370a0823160e01b815230600482015282906000906001600160a01b038316906370a0823190602401602060405180830381865afa158015610541573d6000803e3d6000fd5b505050506040513d601f19601f82011682018060405250810190610565919061145d565b9050600081116105875760405162461bcd60e51b81526004016103d490611476565b808311156105c75760405162461bcd60e51b815260206004820152600d60248201526c125b9d985b1a59105b5bdd5b9d609a1b60448201526064016103d4565b60055460405163a9059cbb60e01b81526001600160a01b039182166004820152602481018590529083169063a9059cbb906044016020604051808303816000875af115801561061a573d6000803e3d6000fd5b505050506040513d601f19601f8201168201806040525081019061063e91906114a0565b5050505050565b60038054610652906114c2565b80601f016020809104026020016040519081016040528092919081815260200182805461067e906114c2565b80156106cb5780601f106106a0576101008083540402835291602001916106cb565b820191906000526020600020905b8154815290600101906020018083116106ae57829003601f168201915b505050505081565b333b1561070c5760405162461bcd60e51b81526020600482015260076024820152664f6e6c79454f4160c81b60448201526064016103d4565b6107168282610f93565b803410156107555760405162461bcd60e51b815260206004820152600c60248201526b496e76616c696456616c756560a01b60448201526064016103d4565b8034111561079557336108fc61076b8334611512565b6040518115909202916000818181858888f19350505050158015610793573d6000803e3d6000fd5b505b60006064600754836107a7919061152b565b6107b19190611542565b905060006107bf8284611512565b6006546040519192506001600160a01b03169083156108fc029084906000818181858888f193505050501580156107fa573d6000803e3d6000fd5b506108088484836000611088565b50505050565b6005546001600160a01b031633146108385760405162461bcd60e51b81526004016103d490611410565b6001600160a01b03811660009081526002602052604090205460ff166108705760405162461bcd60e51b81526004016103d490611434565b6040516370a0823160e01b815230600482015281906000906001600160a01b038316906370a0823190602401602060405180830381865afa1580156108b9573d6000803e3d6000fd5b505050506040513d601f19601f820116820180604052508101906108dd919061145d565b9050600081116108ff5760405162461bcd60e51b81526004016103d490611476565b60055460405163a9059cbb60e01b81526001600160a01b039182166004820152602481018390529083169063a9059cbb906044016020604051808303816000875af1158015610952573d6000803e3d6000fd5b505050506040513d601f19601f8201168201806040525081019061080891906114a0565b61097e610f39565b6001600160a01b0381163b6109be5760405162461bcd60e51b81526020600482015260066024820152654e6f74454f4160d01b60448201526064016103d4565b6001600160a01b03811660009081526002602052604090205460ff1615610456576001600160a01b038116600081815260026020908152604091829020805460ff1916905590519182527f0f67d84e4b1616e4e74e3ff884a262ac5200923a8b104c090f2ba428366404d0910161044d565b6000806000806000600186604051610a489190611564565b90815260408051918290036020908101832060808401835280546001600160a01b039081168086526001830154938601939093526002820154938501939093526003015490911660608301521580159650909150610ab457805160208201516060830151919550935091505b509193509193565b610ac4610f39565b610ace600061116c565b565b60048054610652906114c2565b6005546001600160a01b03163314610b075760405162461bcd60e51b81526004016103d490611410565b60008111610b445760405162461bcd60e51b815260206004820152600a60248201526916995c9bd05b5bdd5b9d60b21b60448201526064016103d4565b4780610b625760405162461bcd60e51b81526004016103d490611476565b80821115610ba25760405162461bcd60e51b815260206004820152600d60248201526c125b9d985b1a59105b5bdd5b9d609a1b60448201526064016103d4565b6005546040516001600160a01b039091169083156108fc029084906000818181858888f19350505050158015610bdc573d6000803e3d6000fd5b505050565b333b15610c1a5760405162461bcd60e51b81526020600482015260076024820152664f6e6c79454f4160c81b60448201526064016103d4565b610c248383610f93565b6001600160a01b03811660009081526002602052604090205460ff16610c5c5760405162461bcd60e51b81526004016103d490611434565b6040516370a0823160e01b8152336004820152819083906001600160a01b038316906370a0823190602401602060405180830381865afa158015610ca4573d6000803e3d6000fd5b505050506040513d601f19601f82011682018060405250810190610cc8919061145d565b1015610d0c5760405162461bcd60e51b8152602060048201526013602482015272496e73756666696369656e7442616c616e636560681b60448201526064016103d4565b6000606460075485610d1e919061152b565b610d289190611542565b90506000610d368286611512565b6040516323b872dd60e01b8152336004820152306024820152604481018790529091506001600160a01b038416906323b872dd906064016020604051808303816000875af1158015610d8c573d6000803e3d6000fd5b505050506040513d601f19601f82011682018060405250810190610db091906114a0565b5060065460405163a9059cbb60e01b81526001600160a01b039182166004820152602481018490529084169063a9059cbb906044016020604051808303816000875af1158015610e04573d6000803e3d6000fd5b505050506040513d601f19601f82011682018060405250810190610e2891906114a0565b50610e3586868387611088565b505050505050565b610e45610f39565b6001600160a01b038116610eaa5760405162461bcd60e51b815260206004820152602660248201527f4f776e61626c653a206e6577206f776e657220697320746865207a65726f206160448201526564647265737360d01b60648201526084016103d4565b6104568161116c565b6005546001600160a01b03163314610edd5760405162461bcd60e51b81526004016103d490611410565b4780610efb5760405162461bcd60e51b81526004016103d490611476565b6005546040516001600160a01b039091169082156108fc029083906000818181858888f19350505050158015610f35573d6000803e3d6000fd5b5050565b6000546001600160a01b03163314610ace5760405162461bcd60e51b815260206004820181905260248201527f4f776e61626c653a2063616c6c6572206973206e6f7420746865206f776e657260448201526064016103d4565b6000825111610fd55760405162461bcd60e51b815260206004820152600e60248201526d125b9d985b1a5913dc99195c925160921b60448201526064016103d4565b600081116110145760405162461bcd60e51b815260206004820152600c60248201526b496e76616c6964507269636560a01b60448201526064016103d4565b60006001600160a01b031660018360405161102f9190611564565b908152604051908190036020019020546001600160a01b031614610f355760405162461bcd60e51b815260206004820152601060248201526f13dc99195c905b1c9958591e54185a5960821b60448201526064016103d4565b6040518060800160405280336001600160a01b03168152602001848152602001838152602001826001600160a01b03168152506001856040516110cb9190611564565b9081526040805160209281900383018120845181546001600160a01b03199081166001600160a01b039283161783559486015160018301559285015160028201556060909401516003909401805490931693821693909317909155821690611134908690611564565b6040519081900381209033907f7ee709d4d8d440428644357a0d946934e53d2aa369ea1469a10ffaf70547d7e890600090a450505050565b600080546001600160a01b038381166001600160a01b0319831681178455604051919092169283917f8be0079c531659141344cd1fd0a4f28419497f9722a3daafe3b4186f6b6457e09190a35050565b80356001600160a01b03811681146111d357600080fd5b919050565b6000602082840312156111ea57600080fd5b6111f3826111bc565b9392505050565b6000806040838503121561120d57600080fd5b611216836111bc565b946020939093013593505050565b60005b8381101561123f578181015183820152602001611227565b50506000910152565b6020815260008251806020840152611267816040850160208701611224565b601f01601f19169190910160400192915050565b634e487b7160e01b600052604160045260246000fd5b600082601f8301126112a257600080fd5b813567ffffffffffffffff808211156112bd576112bd61127b565b604051601f8301601f19908116603f011681019082821181831017156112e5576112e561127b565b816040528381528660208588010111156112fe57600080fd5b836020870160208301376000602085830101528094505050505092915050565b6000806040838503121561133157600080fd5b823567ffffffffffffffff81111561134857600080fd5b61135485828601611291565b95602094909401359450505050565b60006020828403121561137557600080fd5b813567ffffffffffffffff81111561138c57600080fd5b61139884828501611291565b949350505050565b6000602082840312156113b257600080fd5b5035919050565b6000806000606084860312156113ce57600080fd5b833567ffffffffffffffff8111156113e557600080fd5b6113f186828701611291565b93505060208401359150611407604085016111bc565b90509250925092565b6020808252600a908201526927b7363ca9b2b63632b960b11b604082015260600190565b6020808252600f908201526e125b9d985b1a5910dbdb9d1c9858dd608a1b604082015260600190565b60006020828403121561146f57600080fd5b5051919050565b60208082526010908201526f4e6f46756e6473417661696c61626c6560801b604082015260600190565b6000602082840312156114b257600080fd5b815180151581146111f357600080fd5b600181811c908216806114d657607f821691505b6020821081036114f657634e487b7160e01b600052602260045260246000fd5b50919050565b634e487b7160e01b600052601160045260246000fd5b81810381811115611525576115256114fc565b92915050565b8082028115828204841417611525576115256114fc565b60008261155f57634e487b7160e01b600052601260045260246000fd5b500490565b60008251611576818460208701611224565b919091019291505056fea26469706673582212201616fa8dcf33559988165314ccb288474048eb848b6e16a8b631e69bd3b7e74f64736f6c63430008150033",
    "linkReferences": {}
  },
  "methodIdentifiers": {
    "addPaymentContract(address)": "1cc2b38e",
    "allowedPaymentContracts(address)": "131cdf24",
    "beneficiaryAddress()": "d9c4870e",
    "deletePaymentContract(address)": "568b6850",
    "getOrder(string)": "712ca0f8",
    "marketplaceId()": "8282c7f7",
    "owner()": "8da5cb5b",
    "payUsingCoin(string,uint256)": "2b12f180",
    "payUsingToken(string,uint256,address)": "b62ff988",
    "platformCommissionRate()": "1da4dd0d",
    "renounceOwnership()": "715018a6",
    "sellerAddress()": "3d9b2ae6",
    "sellerId()": "261d7555",
    "transferOwnership(address)": "f2fde38b",
    "withdrawCoins()": "ffbb62a3",
    "withdrawCoinsAmount(uint256)": "91ea85db",
    "withdrawTokens(address)": "49df728c",
    "withdrawTokensAmount(address,uint256)": "22dfc9f5"
  },
  "id": 29
}